:020000040800F2
:1000000000000120E903000815020008230200088F
:100010002B020008330200083B0200080000000029
:100020000000000000000000000000004302000883
:1000300051020008000000005F0200086D02000885
:10004000390400083904000839040008390400089C
:10005000390400083904000839040008390400088C
:10006000390400083904000839040008390400087C
:10007000390400083904000839040008390400086C
:10008000390400083904000839040008390400085C
:10009000390400083904000839040008390400084C
:1000A000390400083904000839040008390400083C
:1000B000390400083904000839040008390400082C
:1000C000390400083904000839040008390400081C
:1000D000390400083904000839040008390400080C
:1000E00039040008390400083904000839040008FC
:1000F00039040008390400083904000839040008EC
:1001000039040008390400083904000839040008DB
:1001100039040008390400083904000839040008CB
:1001200039040008390400083904000839040008BB
:1001300039040008390400083904000839040008AB
:10014000390400083904000839040008390400089B
:10015000390400083904000839040008390400088B
:10016000390400083904000839040008390400087B
:10017000390400083904000839040008390400086B
:080180003904000839040008ED
:100188000348044B834202D0034B03B1184770471E
:100198000000002000000020000000000548064B79
:1001A8001B1AD90F01EBA301491002D0034B03B16D
:1001B80018477047000000200000002000000000E1
:1001C80010B5064C237843B9FFF7DAFF044B13B197
:1001D8000448AFF300800123237010BD0000002005
:1001E800000000008404000808B5054B1BB1054950
:1001F8000548AFF30080BDE80840FFF7CFBF00BF58
:1002080000000000040000208404000880B400AF4F
:1002180000BFBD465DF8047B704780B400AF00BFE7
:10022800FDE780B400AF00BFFDE780B400AF00BFBA
:10023800FDE780B400AF00BFFDE780B400AF00BFAA
:10024800BD465DF8047B704780B400AF00BFBD4673
:100258005DF8047B704780B400AF00BFBD465DF811
:10026800047B704780B400AF00BFBD465DF8047BD7
:100278007047000080B500AF164BD3F88830154A98
:1002880043F47003C2F88830134B1B68124A43F0DA
:1002980001031360104B00229A600F4B1B680E4A33
:1002A80023F0847323F4803313600B4B0B4A5A609A
:1002B800094B1B68084A23F480231360064B00226D
:1002C800DA6000F00DF8034B4FF000629A6000BF4F
:1002D80080BD00BF00ED00E000380240103000246F
:1002E80080B483B000AF00237B6000233B60364BB3
:1002F8001B68354A43F480331360334B1B6803F49F
:1003080000333B607B6801337B603B68002B03D183
:100318007B68B3F5A06FF0D12B4B1B6803F4003357
:10032800002B02D001233B6001E000233B603B68C7
:10033800012B42D1244B1B6C234A43F08053136496
:10034800224B1B68214A43F4404313601E4B1E4A4C
:100358009B6893601C4B9B681B4A43F40043936063
:10036800194B9B68184A43F4A0539360164B184ADC
:100378005A60154B1B68144A43F08073136000BF22
:10038800114B1B6803F00073002BF9D0114B40F29E
:1003980005721A600C4B9B680B4A23F003039360A9
:1003A800094B9B68084A43F00203936000BF064B61
:1003B8009B6803F00C03082BF9D100BF0C37BD462E
:1003C8005DF8047B704700BF0038024000700040B1
:1003D80019544007003C024080B400AF00BFFDE75D
:1003E800DFF834D0002103E00C4B5B584350043154
:1003F8000B480C4B42189A42F6D30B4A02E00023F2
:1004080042F8043B094B9A42F9D3FFF733FF00F057
:1004180011F8FFF7E1FF704700000120A40400086D
:100428000000002000000020000000201C00002028
:10043800FEE7000070B50D4B0D4D5B1B9C100026B0
:10044800A64209D100F01AF80A4D0B4B5B1B9C1011
:100458000026A64205D170BD55F8043B98470136E1
:10046800EEE755F8043B98470136F2E79C0400088C
:100478009C0400089C040008A0040008F8B500BF0C
:10048800F8BC08BC9E467047F8B500BFF8BC08BC6D
:040498009E467047C5
:04049C00F101000862
:0404A000C901000886
:04000005080003E903
:00000001FF
